:0400000005EF3FF0D9
:021400000000EA
:107E0A0000014EEF3FF005C083FF8290828225EC8D
:107E1A003FF0829212009EAA15EF3FF017EF3FF053
:107E2A0010EF3FF0AE501200016E01C0ADFF9EA8E8
:107E3A0021EF3FF023EF3FF01CEF3FF09E98120036
:107E4A00000E026E000E016E000E046E000E036E2E
:107E5A00034A042A04BE3BEF3FF0045009E1C90E6D
:107E6A00035CD8A03BEF3FF03DEF3FF02DEF3FF032
:107E7A00014A022A02BE4BEF3FF0025009E1C90E45
:107E8A00015CD8A04BEF3FF04DEF3FF029EF3FF0F8
:107E9A001200800E946E000E956E240EAC6E900E3B
:107EAA00AB6E810EAF6E000E066E380E056E08ECD4
:107EBA003FF0000E066E010E056E08EC3FF0000E54
:107ECA00066E0F0E056E08EC3FF0000E066E0E0EE3
:107EDA00056E08EC3FF0000E066E800E056E08EC8B
:107EEA003FF010EC3FF0076E075019EC3FF076EFC9
:067EFA003FF000EF00F074
:00000001FF
