:04000000A4EF04F075
:1006000000000F0EC16EF00E936E000E946E000E81
:10061000956E010E88EC04F0000E0C6E000E0B6E51
:100620000E0E816E81B817EF03F019EF03F025EF7E
:1006300003F0390E6CEC04F081A821EF03F023EFF6
:1006400003F01CEF03F062EF03F081BA2AEF03F02E
:100650002CEF03F038EF03F0380E6CEC04F081AAB5
:1006600034EF03F036EF03F02FEF03F062EF03F007
:1006700081BC3DEF03F03FEF03F04BEF03F0370E8B
:100680006CEC04F081AC47EF03F049EF03F042EF6C
:1006900003F062EF03F081BE50EF03F052EF03F07E
:1006A00062EF03F0100E88EC04F0200E6CEC04F006
:1006B000100E88EC04F081AE60EF03F062EF03F0FF
:1006C0005BEF03F00D0E816E81B869EF03F06BEF05
:1006D00003F077EF03F0360E6CEC04F081A873EFB3
:1006E00003F075EF03F06EEF03F09BEF03F081BAB8
:1006F0007CEF03F07EEF03F08AEF03F0350E6CEC35
:1007000004F081AA86EF03F088EF03F081EF03F095
:100710009BEF03F081BC8FEF03F091EF03F09BEFB1
:1007200003F0340E6CEC04F081AC99EF03F09BEF16
:1007300003F094EF03F00B0E816E81B8A2EF03F08B
:10074000A4EF03F0B0EF03F0330E6CEC04F081A8DB
:10075000ACEF03F0AEEF03F0A7EF03F0D4EF03F03C
:1007600081BAB5EF03F0B7EF03F0C3EF03F0320E39
:100770006CEC04F081AABFEF03F0C1EF03F0BAEF15
:1007800003F0D4EF03F081BCC8EF03F0CAEF03F02D
:10079000D4EF03F0310E6CEC04F081ACD2EF03F037
:1007A000D4EF03F0CDEF03F0070E816E81B8DBEFDD
:1007B00003F0DDEF03F011EF04F0020E0B180C1044
:1007C000D8A4E5EF03F0E7EF03F0EBEF03F0000E42
:1007D0000C6E000E0B6E0B4A0C2A81A8F2EF03F090
:1007E000F4EF03F0EDEF03F00B040C10D8A4FBEFD3
:1007F00003F0FDEF03F002EF04F00F0E88EC04F0BD
:1008000010EF03F0020E0B180C10D8A40AEF04F03E
:100810000CEF04F044EF04F0080E88EC04F010EF45
:1008200003F081BA16EF04F018EF04F024EF04F09F
:10083000010E88EC04F081AA20EF04F022EF04F00E
:100840001BEF04F010EF03F081BC29EF04F02BEF55
:1008500004F034EF04F081AC30EF04F032EF04F038
:100860002BEF04F010EF03F081BE39EF04F03BEF03
:1008700004F010EF03F081AE40EF04F042EF04F01B
:100880003BEF04F010EF03F010EF03F000EF00F087
:10089000000E066E000E076E000E086E000E096E4A
:1008A00058EF04F0010E0626000E07220822092246
:1008B0000150065C02500758035008580950800A3E
:1008C000056E0450800A0558D8A069EF04F06BEF5C
:1008D00004F052EF04F012000A6E828082920AC085
:1008E00083FF8284640E016E000E026E000E036EA2
:1008F000000E046E48EC04F08294880E016E130E14
:10090000026E000E036E000E046E48EC04F012003E
:100910000A6E829082920AC083FF8284640E016E06
:10092000000E026E000E036E000E046E48EC04F022
:100930008294880E016E130E026E000E036E000E7E
:0E094000046E48EC04F01200000101EF03F019
:00000001FF
