:04000000A3EF07F073
:1006000000416363657373204772616E74656400B3
:10061000456E746572206E657720636F6465004176
:1006200063636573732044656E696564006F6C6411
:1006300020636F6465206973006E657720636F6463
:100640006520697300456E74657220636F64650090
:0106500000A9
:100652000F0EC16EF00E936E000E946E000E956E2C
:10066200380E87EC07F0800E87EC07F0010E87EC5E
:1006720007F0450E0B6EBEEC07F0C00E87EC07F0DC
:10068200000E2A6E000E296E2ABE51EF03F02A5088
:1006920009E1040E295CD8A051EF03F053EF03F0F7
:1006A20055EF03F0DDEF03F025042610D8A45CEF2C
:1006B20003F05EEF03F060EF03F0DDEF03F056ECC2
:1006C20005F02F6EAEEF03F0FE0E2924296EFF0E09
:1006D2002A202A6EBDEF03F0010E87EC07F0800E90
:1006E20087EC07F0100E0B6EBEEC07F0A5EC06F0DF
:1006F200000E266E010E256E000E2A6E040E296E65
:10070200BDEF03F0000E2A6E000E296E2ABE93EF93
:1007120003F02A5009E1040E295CD8A093EF03F0FC
:1007220095EF03F097EF03F09BEF03F0294A2A2A93
:1007320087EF03F0010E87EC07F054EF05F056EC5B
:1007420005F02F6E2F506BEC07F029501E0FD96E5B
:10075200DA6A2FC0DFFFBDEF03F02F50610AD8B471
:1007620065EF03F0030AD8B46DEF03F0010AD8B4C1
:1007720083EF03F0A0EF03F081A8C2EF03F0C4EF10
:1007820003F0BDEF03F081AAC9EF03F0CBEF03F052
:10079200BDEF03F081ACD0EF03F0D2EF03F0BDEF79
:1007A20003F081AED7EF03F0D9EF03F0BDEF03F012
:1007B200294A2A2A45EF03F0100E016E270E026E17
:1007C200000E036E000E046E47EC07F02550261053
:1007D200D8A4EEEF03F0F0EF03F06DEF04F0190E82
:1007E200016E1E0E026E18EC07F001500210D8A422
:1007F200FDEF03F0FFEF03F036EF04F0010E87EC9C
:1008020007F0010E0B6EBEEC07F0000E0D6E000E2F
:100812000C6E080E87EC07F0100E016E270E026EAA
:10082200000E036E000E046E47EC07F00F0E87EC0D
:1008320007F0100E016E270E026E000E036E000E00
:10084200046E47EC07F00C4A0D2A0DBE32EF04F09D
:100852000D5009E10A0E0C5CD8A032EF04F034EF1F
:1008620004F00AEF04F034EF03F0010E87EC07F016
:100872001F0E0B6EBEEC07F0000E0F6E000E0E6E1A
:10088200080E87EC07F0100E016E270E026E000EA6
:10089200036E000E046E47EC07F00F0E87EC07F0B4
:1008A200100E016E270E026E000E036E000E046E15
:1008B20047EC07F00E4A0F2A0FBE69EF04F00F5003
:1008C20009E10A0E0E5CD8A069EF04F06BEF04F0A8
:1008D20041EF04F034EF03F025042610D8A474EF9E
:1008E20004F076EF04F034EF03F0010E87EC07F02A
:1008F200800E87EC07F0450E0B6EBEEC07F0880EFB
:10090200016E130E026E000E036E000E046E47ECB3
:1009120007F0C00E87EC07F0000E2A6E000E296E5B
:100922002ABE9DEF04F02A5009E1040E295CD8A0EA
:100932009DEF04F09FEF04F0A1EF04F0CDEF04F07F
:1009420056EC05F02F6E2F506BEC07F029501E0F5E
:10095200D96EDA6A2FC0DFFF81A8B2EF04F0B4EFDC
:1009620004F0ADEF04F081AAB9EF04F0BBEF04F09C
:10097200ADEF04F081ACC0EF04F0C2EF04F0ADEFD4
:1009820004F081AEC7EF04F0C9EF04F0ADEF04F05C
:10099200294A2A2A91EF04F0190E016E1E0E026EE8
:1009A20018EC07F001500210D8A4DAEF04F0DCEFE3
:1009B20004F013EF05F0010E87EC07F0010E0B6E49
:1009C200BEEC07F0000E116E000E106E080E87ECE2
:1009D20007F0100E016E270E026E000E036E000E5F
:1009E200046E47EC07F00F0E87EC07F0100E016E55
:1009F200270E026E000E036E000E046E47EC07F027
:100A0200104A112A11BE0FEF05F0115009E10A0E2A
:100A1200105CD8A00FEF05F011EF05F0E7EF04F03E
:100A220048EF05F0010E87EC07F01F0E0B6EBEECCF
:100A320007F0000E136E000E126E080E87EC07F020
:100A4200100E016E270E026E000E036E000E046E73
:100A520047EC07F00F0E87EC07F0100E016E270E21
:100A6200026E000E036E000E046E47EC07F0124A8F
:100A7200132A13BE46EF05F0135009E10A0E125C69
:100A8200D8A046EF05F048EF05F01EEF05F056EC52
:100A920005F02F6E81AC50EF05F052EF05F04BEFF1
:100AA20005F034EF03F000EF00F00E0E816E81B816
:100AB2005DEF05F05FEF05F062EF05F0390EA4EF90
:100AC20006F081BA67EF05F069EF05F06CEF05F00B
:100AD200380EA4EF06F081BC71EF05F073EF05F05C
:100AE20076EF05F0370EA4EF06F081BE7BEF05F03E
:100AF2007DEF05F089EF05F0100E87EC07F0200E70
:100B02006BEC07F0100E87EC07F0610EA4EF06F015
:100B12000D0E816E81B890EF05F092EF05F095EF22
:100B220005F0360EA4EF06F081BA9AEF05F09CEFBD
:100B320005F09FEF05F0350EA4EF06F081BCA4EF9F
:100B420005F0A6EF05F0A9EF05F0340EA4EF06F0CC
:100B520081BEAEEF05F0B0EF05F0B3EF05F0620E27
:100B6200A4EF06F00B0E816E81B8BAEF05F0BCEF70
:100B720005F0BFEF05F0330EA4EF06F081BAC4EF23
:100B820005F0C6EF05F0C9EF05F0320EA4EF06F04E
:100B920081BCCEEF05F0D0EF05F0D3EF05F0310EBA
:100BA200A4EF06F0070E816E81B8DAEF05F0DCEFF4
:100BB20005F012EF06F0020E2D182E10D8A4E4EF65
:100BC20005F0E6EF05F0EAEF05F0000E2E6E000EDE
:100BD2002D6E2D4A2E2A81A8F1EF05F0F3EF05F0D4
:100BE200ECEF05F02D042E10D8A4FAEF05F0FCEF7F
:100BF20005F001EF06F00F0E87EC07F056EF05F057
:100C0200020E2D182E10D8A409EF06F00BEF06F0F5
:100C120010EF06F0080E87EC07F056EF05F056EFDE
:100C220005F081BA17EF06F019EF06F01CEF06F097
:100C3200630EA4EF06F081BC21EF06F023EF06F06D
:100C4200A2EF06F0010E87EC07F0020E2B182C1013
:100C5200D8A42EEF06F030EF06F034EF06F0000EC7
:100C62002C6E000E2B6E2B4A2C2A81AC3BEF06F029
:100C72003DEF06F036EF06F02B042C10D8A444EF1B
:100C820006F046EF06F06FEF06F0800E87EC07F0F5
:100C92002D0E0B6EBEEC07F0C00E87EC07F0000EB7
:100CA2002A6E000E296E2ABE60EF06F02A5009E174
:100CB200040E295CD8A060EF06F062EF06F064EF44
:100CC20006F056EF05F02950140FD96EDA6ADF509C
:100CD2006BEC07F0294A2A2A54EF06F0020E2B1871
:100CE2002C10D8A477EF06F079EF06F0A4EF06F007
:100CF200800E87EC07F0390E0B6EBEEC07F0C00ECB
:100D020087EC07F0000E2A6E000E296E2ABE93EFC2
:100D120006F02A5009E1040E295CD8A093EF06F0F0
:100D220095EF06F097EF06F056EF05F02950190FF0
:100D3200D96EDA6ADF506BEC07F0294A2A2A87EF6C
:100D420006F056EF05F01200C00E87EC07F0000E19
:100D5200286E000E276E56EC05F02F6EE0EF06F0BF
:100D6200FE0E2724276EFF0E2820286EEBEF06F0DA
:100D7200000E286E000E276E274A282A28BECBEFC7
:100D820006F0285009E1040E275CD8A0CBEF06F04C
:100D9200CDEF06F0BDEF06F0010E87EC07F0EBEFAA
:100DA20006F056EC05F02F6E2F506BEC07F0275033
:100DB200190FD96EDA6A2FC0DFFFEBEF06F02F5062
:100DC200610AD8B4B1EF06F0020AD8B4B9EF06F05E
:100DD200D2EF06F081A8F0EF06F0F2EF06F0EBEFAB
:100DE20006F081AAF7EF06F0F9EF06F0EBEF06F056
:100DF20081ACFEEF06F000EF07F0EBEF06F081AEFC
:100E020005EF07F007EF07F0EBEF06F0274A282A75
:100E120028BE15EF07F0285009E1040E275CD8A080
:100E220015EF07F017EF07F0ACEF06F012001CEF1A
:100E320007F0012A022A0250D96EDA6A0150E16EE5
:100E4200E26ADE50E618D8A429EF07F02BEF07F08C
:100E520036EF07F00150D96EDA6ADF50D8A434EFCA
:100E620007F036EF07F01AEF07F00150D96EDA6A91
:100E7200DF50036E0250D96EDA6ADF50046E0450FE
:100E8200035C016E026AD8A002061200000E066E12
:100E9200000E076E000E086E000E096E57EF07F087
:100EA200010E0626000E0722082209220150065CC6
:100EB20002500758035008580950800A056E045022
:100EC200800A0558D8A068EF07F06AEF07F051EFE3
:100ED20007F012000A6E828082920AC083FF828427
:100EE200640E016E000E026E000E036E000E046EA2
:100EF20047EC07F08294880E016E130E026E000E0C
:100F0200036E000E046E47EC07F012000A6E829028
:100F120082920AC083FF8284640E016E000E026E0A
:100F2200000E036E000E046E47EC07F08294880EEA
:100F3200016E130E026E000E036E000E046E47EC7D
:100F420007F01200B00EF66E0F0EF76E000EF86E7E
:100F520000EE14F010EE0FF00900F5CFEEFFE550B1
:100F6200E150FAE100EE23F00D0EEE6AE806FDE133
:100F7200000EF86E000129EF03F0C9EF07F00BC075
:100F8200F6FF060EF76E0800F5506BEC07F00B2A21
:100F92000BC0F6FF060EF76E0800F5500009D8A444
:100FA200D5EF07F0D7EF07F0C0EF07F012003132AC
:0D0FB200333400303030300030303030004B
:00000001FF
