:0400000093EF03F087
:100600000000000E956E030E946E01680268036888
:10061000046882A00EEF03F010EF03F025EF03F063
:10062000020E01180210D8A418EF03F01AEF03F01D
:100630001CEF03F001680268014A022A82B023EF2E
:1006400003F025EF03F01EEF03F001500210D8A4D1
:100650002CEF03F02EEF03F032EF03F08390838250
:100660004BEF03F001040210D8A439EF03F03BEF85
:1006700003F03FEF03F0838083924BEF03F0020E11
:1006800001180210D8A447EF03F049EF03F04BEF35
:1006900003F08390839282A250EF03F052EF03F0B5
:1006A00067EF03F0020E03180410D8A45AEF03F00A
:1006B0005CEF03F05EEF03F003680468034A042A6A
:1006C00082B265EF03F067EF03F060EF03F00350D1
:1006D0000410D8A46EEF03F070EF03F074EF03F092
:1006E0008384839609EF03F003040410D8A47BEFFE
:1006F00003F07DEF03F081EF03F08394838609EF2D
:1007000003F0020E03180410D8A489EF03F08BEF56
:1007100003F08FEF03F08394839609EF03F009EF62
:0C07200003F000EF00F0000101EF03F017
:00000001FF
