:0400000031EF04F0E8
:100600000000000E936E93CF92FF92CF94FF0F0ED7
:10061000C16E9568000E196E000E186E000E1B6EEE
:10062000000E1A6E000E1D6E000E1C6E000E1F6E68
:10063000000E1E6E20EE20F010EE0EF0090EDBCF45
:10064000E3FFE806FCE22AC00AF02BC00BF02CC046
:100650000CF02DC00DF00E0E806E18500E0FD96EDE
:10066000DA6ADF50816EE80E016E030E026E000E34
:10067000036E000E046E0DEC04F00D0E806E1A5029
:100680000E0FD96EDA6ADF50816EE80E016E030E2E
:10069000026E000E036E000E046E0DEC04F00B0EE5
:1006A000806E1C500E0FD96EDA6ADF50816EE80E34
:1006B000016E030E026E000E036E000E046E0DEC52
:1006C00004F0070E806E1E500E0FD96EDA6ADF50EE
:1006D000816EE80E016E030E026E000E036E000EB8
:1006E000046E0DEC04F083B078EF03F07AEF03F0C2
:1006F0002BEF03F0184A192A0A0E18181910D8A45B
:1007000084EF03F086EF03F002EF04F0000E196EA1
:10071000000E186E1A4A1B2A0A0E1A181B10D8A4AB
:1007200094EF03F096EF03F002EF04F0000E1B6E5F
:10073000000E1A6E1C4A1D2A0A0E1C181D10D8A481
:10074000A4EF03F0A6EF03F002EF04F0000E1D6E1D
:10075000000E1C6E1E4A1F2A0A0E1E181F10D8A457
:10076000B4EF03F0B6EF03F0B8EF03F00BEF04F0D3
:1007700002EF04F00E0E806E18500E0FD96EDA6A7A
:10078000DF50816EE80E016E030E026E000E036EE6
:10079000000E046E0DEC04F00D0E806E1A500E0F5C
:1007A000D96EDA6ADF50816EE80E016E030E026EBA
:1007B000000E036E000E046E0DEC04F00B0E806E46
:1007C0001C500E0FD96EDA6ADF50816EE80E016E92
:1007D000030E026E000E036E000E046E0DEC04F0AC
:1007E000070E806E1E500E0FD96EDA6ADF50816ED2
:1007F000E80E016E030E026E000E036E000E046E14
:100800000DEC04F083A007EF04F009EF04F0BAEF59
:1008100003F02BEF03F000EF00F0000E066E000E69
:10082000076E000E086E000E096E1DEF04F0010E3B
:100830000626000E0722082209220150065C0250FB
:100840000758035008580950800A056E0450800A62
:100850000558D8A02EEF04F030EF04F017EF04F0A5
:100860001200880EF66E080EF76E000EF86E00EE9F
:1008700020F010EE0EF00900F5CFEEFFE550E1504C
:10088000FAE1000101EF03F03F065B4F666D7D0763
:060890007F6F0E0D0B0747
:00000001FF
