:0400000081EF03F099
:100600000076616E616D0000000E086E000E096ECE
:10061000000E0A6E000E0B6E14EF03F0010E08269A
:10062000000E09220A220B2201C003F002C004F0CE
:10063000000E04BEFF0E056E066E0350085C0450EB
:10064000095805500A580B50800A076E0650800A58
:100650000758D8A02EEF03F030EF03F00EEF03F0B1
:1006600012003AEF03F00DC0F6FF0800F55047EC1A
:1006700003F00D2A0DC0F6FF0800F5500009D8A4BC
:1006800044EF03F046EF03F033EF03F012000C6E7B
:10069000828082920CC083FF8284000E026E640E00
:1006A000016E04EC03F08294130E026E880E016E4C
:1006B00004EC03F012000C6E829082920CC083FF57
:1006C0008284000E026E640E016E04EC03F08294CC
:1006D000130E026E880E016E04EC03F01200000E81
:1006E000956E95CF94FF010E5BEC03F00F0E5BEC63
:1006F00003F0010E0D6E31EC03F07DEF03F000EF1F
:1007000000F0000EF86E060EF76E00016FEF03F0BA
:00000001FF
