:04000000B2EF04F067
:1006000000212121212121212173746F70212121B9
:1006100021212121210073746F70212120202020AD
:100620002020202020202000636C6F636B7769738B
:10063000653E3E202020202000636C6F636B77694D
:1006400073653E3E2020202000616E7469636C6FEC
:10065000636B776973653C3C0000600E946E000E1E
:10066000956E000E936E010E5AEC04F00C0E5AECCF
:1006700004F0380E5AEC04F00C680D680E680F6830
:1006800082AA45EF03F047EF03F0ABEF03F0020E51
:100690000C180D10D8A44FEF03F051EF03F053EFF7
:1006A00003F00C680D680C4A0D2A82BA5AEF03F069
:1006B0005CEF03F055EF03F0800E5AEC04F00C50A1
:1006C0000D10D8A466EF03F068EF03F078EF03F0A5
:1006D000000E026E000E016E000E046E010E036E1F
:1006E0009FEC04F0280E0B6E76EC04F0ABEF03F0F9
:1006F0000C040D10D8A47FEF03F081EF03F091EF0D
:1007000003F0000E026E010E016E000E046E000E6C
:10071000036E9FEC04F0490E0B6E76EC04F0ABEF29
:1007200003F0020E0C180D10D8A499EF03F09BEF04
:1007300003F0ABEF03F0000E026E000E016E000E30
:10074000046E000E036E9FEC04F0160E0B6E76EC3A
:1007500004F0ABEF03F082ACB0EF03F0B2EF03F0C4
:1007600040EF03F0020E0E180F10D8A4BAEF03F0FA
:10077000BCEF03F0BEEF03F00E680F680E4A0F2ABD
:1007800082BCC5EF03F0C7EF03F0C0EF03F0C00E6B
:100790005AEC04F00E500F10D8A4D1EF03F0D3EFB1
:1007A00003F0E3EF03F0000E026E000E016E000E88
:1007B000046E010E036E8CEC04F0390E0B6E76ECB9
:1007C00004F040EF03F00E040F10D8A4EAEF03F09A
:1007D000ECEF03F0FCEF03F0000E026E010E016E71
:1007E000000E046E000E036E8CEC04F0490E0B6ECE
:1007F00076EC04F040EF03F0020E0E180F10D8A4B0
:1008000004EF04F006EF04F016EF04F0000E026EA1
:10081000000E016E000E046E000E036E8CEC04F0F0
:10082000010E0B6E76EC04F040EF03F040EF03F0A6
:1008300000EF00F0000E066E000E076E000E086E50
:10084000000E096E2AEF04F0010E0626000E0722A4
:10085000082209220150065C02500758035008582C
:100860000950800A056E0450800A0558D8A03BEF55
:1008700004F03DEF04F024EF04F012000A6E8280D1
:1008800082920AC083FF8284640E016E000E026EA3
:10089000000E036E000E046E1AEC04F08294880EB3
:1008A000016E130E026E000E036E000E046E1AEC43
:1008B00004F012000A6E829082920AC083FF828442
:1008C000640E016E000E026E000E036E000E046ECA
:1008D0001AEC04F08294880E016E130E026E000E64
:1008E000036E000E046E1AEC04F012007FEF04F0A9
:1008F0000BC0F6FF0800F5503EEC04F00B2A0BC0CD
:10090000F6FF0800F5500009D8A489EF04F08BEF3A
:1009100004F078EF04F0120001B091EF04F094EFCE
:1009200004F0818E95EF04F0819E03B09AEF04F0FD
:100930009DEF04F0818C9EEF04F0819C120001B0C9
:10094000A4EF04F0A7EF04F08286A8EF04F08296EB
:1009500003B0ADEF04F0B0EF04F08288B1EF04F023
:1009600082981200000EF86E060EF76E00012DEF51
:0209700003F092
:00000001FF
