:040000009BEF0AF078
:100600000074656D702076616C75652069732025B6
:070610003464200D0A000014
:100618001250800B1B6E12501224216E11AE17EF70
:1006280003F019EF03F01AEF03F021802150D8B43A
:1006380020EF03F022EF03F035EF03F02128D8A4D0
:1006480028EF03F02AEF03F032EF03F0000E0F6EED
:10065800000E106E000E116E000E126E118E3DEF20
:1006680003F0000E0F6E000E106E000E116E000EDD
:10067800126E1650800B1B1A16501624206E15AEDB
:1006880048EF03F04AEF03F04BEF03F020802050CF
:10069800D8B451EF03F053EF03F066EF03F02028CE
:1006A800D8A459EF03F05BEF03F063EF03F0000EFB
:1006B800136E000E146E000E156E000E166E158E5B
:1006C8006EEF03F0000E136E000E146E000E156E22
:1006D800000E166E2050D8B474EF03F076EF03F0D6
:1006E8007EEF03F02150D8A47CEF03F07EEF03F0F7
:1006F80088EF03F0000E0F6E000E106E000E116EE4
:10070800000E126E20EF05F015500F02F3CF26F001
:10071800F4CF27F026501C6E1D6A1E6A1F6A2750E8
:10072800226E236A246A256A14501002F3CF26F039
:10073800F4CF27F026501C26000E1D221E221F2251
:1007480027502226000E232224222522135011028C
:10075800F3CF26F0F4CF27F026501C26000E1D22DA
:100768001E221F2227502226000E23222422252261
:100778001EC01FF01DC01EF01CC01DF01C6A1350C7
:100788001002F3CF26F0F4CF27F026501C2627506E
:100798001D22000E1E22000E1F2214500F02F3CF3E
:1007A80026F0F4CF27F026501C2627501D22000ED5
:1007B8001E22000E1F221EC01FF01DC01EF01CC0EE
:1007C8001DF01C6A13500F02F3CF26F0F4CF27F068
:1007D80026501C2627501D22000E1E22000E1F2206
:1007E80015501002F3CF26F0F4CF27F0265022261A
:1007F80027502322000E2422000E25221450110215
:10080800F3CF26F0F4CF27F02650222627502322B4
:10081800000E2422000E252215501102F3CF26F0D7
:10082800F4CF27F02650176E2750186E196A1A6AE7
:1008380019C01AF018C019F017C018F0176A175025
:10084800222618502322195024221A5025221CC06F
:1008580017F01DC018F01EC019F01FC01AF0190EAD
:100868003BEF04F0D8901A32193218321732E82EBA
:1008780036EF04F01750222618502322195024224C
:100888001A5025221EC01FF01DC01EF01CC01DF0EE
:100898001C6A205021C017F0186A1726000E18226B
:1008A800820E1724266EFF0E1820276E71EF04F0B3
:1008B800D89022362336243625361FAE66EF04F04C
:1008C80068EF04F069EF04F02280D8901C361D36DA
:1008D8001E361F362606D8A0270624AE76EF04F06B
:1008E80078EF04F05CEF04F0000E206E1FAE7FEF8F
:1008F80004F081EF04F0A5EF04F0FF0E1C14176E4E
:10090800FF0E1D14186EFF0E1E14196E7F0E1F1495
:100918001A6E1750181019101A10D8B496EF04F060
:1009280098EF04F09CEF04F0010E206EA5EF04F0A0
:1009380022A0A1EF04F0A3EF04F0A5EF04F098EFD4
:1009480004F02050D8B4ABEF04F0ADEF04F0D1EFD1
:1009580004F0010E2226000E23222422252225A09F
:10096800B8EF04F0BAEF04F0D1EF04F022C017F0AA
:1009780023C018F024C019F025C01AF01A341A320E
:1009880019321832173217C022F018C023F019C0D4
:1009980024F01AC025F0264A272A27BEDCEF04F0E7
:1009A800275008E12628D8A0DCEF04F0DEEF04F099
:1009B800E8EF04F0000E226E000E236E800E246E07
:1009C8007F0E256E16EF05F027BEF5EF04F02750D1
:1009D80006E12604D8B0F3EF04F0F5EF04F001EFD8
:1009E80005F0000E226E000E236E000E246E000E1F
:1009F800256E000E1B6E16EF05F026C021F0FF0EC7
:100A08002216FF0E23167F0E2416000E251621A08F
:100A180010EF05F012EF05F013EF05F0248ED890D3
:100A28002130256E1B50251222C00FF023C010F074
:100A380024C011F025C012F01200096E0950D8B474
:100A480028EF05F02AEF05F04CEF05F004BE31EF72
:100A580005F02FEF05F04CEF05F001C005F002C0DE
:100A680006F003C007F004C008F0051E061E071EA6
:100A7800081E052A000E06220722082205C00BF0D0
:100A880006C00CF007C00DF008C00EF054EF05F0DA
:100A980001C00BF002C00CF003C00DF004C00EF052
:100AA8000150021003100410D8A45DEF05F05FEFA9
:100AB80005F069EF05F0000E016E000E026E000EE3
:100AC800036E000E046EFAEF05F0960E0A6E73EFD1
:100AD80005F00A2AD8900E320D320C320B32000E75
:100AE8000B14056E000E0C14066E000E0D14076E26
:100AF800FE0E0E14086E0550061007100810D8A434
:100B080088EF05F08AEF05F06DEF05F098EF05F036
:100B18000A2A010E0B26000E0C220D220E22D89056
:100B28000E320D320C320B32000E0B14056E000E15
:100B38000C14066E000E0D14076EFF0E0E14086ED0
:100B48000550061007100810D8A4ADEF05F0AFEF58
:100B580005F08CEF05F0B7EF05F00A06D8900B36D4
:100B68000C360D360E360DBEBCEF05F0BEEF05F0A7
:100B7800C6EF05F0020E0A60C4EF05F0C6EF05F0F7
:100B8800B1EF05F00AB0CBEF05F0CDEF05F0CEEFF1
:100B980005F00D9ED8900A320AC005F0066A076A69
:100BA800086A05C008F0076A066A056A05500B124C
:100BB80006500C1207500D1208500E120950D8B4E6
:100BC800E8EF05F0EAEF05F0F2EF05F004BEF1EF0B
:100BD80005F0EFEF05F0F2EF05F00E8E0BC001F017
:100BE8000CC002F00DC003F00EC004F01200010E9C
:100BF8001C6E17BE02EF06F005EF06F0010E06EFB9
:100C080006F0000E1D6E60C01AF061C01BF01D508A
:100C1800D8B411EF06F013EF06F02AEF06F01A0623
:100C2800D8A01B061D50D8A41CEF06F01EEF06F036
:100C380024EF06F0000E196E2B0E186E28EF06F042
:100C4800000E196E2D0E186E18C01DF0000E1F6EC6
:100C58001F0E1E6E000E0001836F60EF06F01E0669
:100C6800D8A01F061E50640FD96EDA6A16C001F0AC
:100C780017C002F0000E046E0A0E036E9DEC08F019
:100C880001C007F002C008F057EC0AF00750300F17
:100C9800DF6E000E1C6E1A06D8A01B0616C001F0E7
:100CA80017C002F0000E046E0A0E036E3BEC08F04B
:100CB80001C016F002C017F01FBE6BEF06F01F5000
:100CC80008E11E04D8A06BEF06F06DEF06F07EEF8A
:100CD80006F016501710D8A474EF06F076EF06F059
:100CE80033EF06F01C50D8A47CEF06F07EEF06F038
:100CF80033EF06F01D50D8B484EF06F086EF06F007
:100D08008FEF06F01E06D8A01F061E50640FD96E7E
:100D1800DA6A1DC0DFFF15C00EF01E50640F0F6E9B
:100D28001AC010F01BC011F099EC09F01200800EE7
:100D3800946E000E956E240EAC6E900EAB6E810E06
:100D4800AF6EF00E936E9268000EC16E860EC06E86
:100D5800010EC26EF40E016E010E026E000E036EDD
:100D6800000E046EDEEC09F0C2829EACBEEF06F007
:100D7800C0EF06F0B9EF06F09E9CC3CF56F0C4CF83
:100D880057F0C40E136E590E146EF90E156E3E0E02
:100D9800166E56C001F057C002F0000E02BEFF0EDC
:100DA800036E046E010E21EC05F001C00FF002C0C5
:100DB80010F003C011F004C012F00CEC03F00FC0E7
:100DC80028F010C029F011C02AF012C02BF037EC1F
:100DD80007F028C05CF029C05DF058505C1809E1A4
:100DE80059505D18D8B4FBEF06F0FDEF06F0ACEFF4
:100DF80006F03D0E2C6E010E2D6E5CC02EF05DC00F
:100E08002FF03DEC0AF0000E5B6E000E5A6E16EFE6
:100E180007F05A503D0FD96EDA6ADF50A9EC0AF094
:100E28005A4A5B2A3D0E016E71EC0AF05A50015C79
:100E38005B500258D8B023EF07F025EF07F00DEF0D
:100E480007F0E80E016E030E026E000E036E000E30
:100E5800046EDEEC09F05CC058F05DC059F0ACEFF0
:100E680006F000EF00F02A342B34316E3150D8A44C
:100E780040EF07F042EF07F04CEF07F0000E286E46
:100E8800000E296E000E2A6E000E2B6EB9EF07F0C9
:100E980028C02CF029C02DF02AC02EF02BC02FF02E
:100EA800200E5CEF07F0D8902F322E322D322C32E4
:100EB800E82E57EF07F02C50306E2A8EFF0E2816BA
:100EC800FF0E2916FF0E2A16000E2B16960E315EFF
:100ED80031BE73EF07F071EF07F089EF07F031507B
:100EE800800A970FD8B07BEF07F07DEF07F07FEF10
:100EF80007F042EF07F0D8902B322A3229322832F5
:100F0800313E7FEF07F0A1EF07F01F0E31648FEF3E
:100F180007F091EF07F099EF07F042EF07F0D8904C
:100F2800283629362A362B3631063150D8A49FEF79
:100F380007F0A1EF07F093EF07F03050D8B4A7EF10
:100F480007F0A9EF07F0B1EF07F02B1E2A1E291EA4
:100F5800286C000E29222A222B2228C028F029C01A
:100F680029F02AC02AF02BC02BF012002150D96E8C
:100F7800DA6ADFCFF6FF0800F550250AD8A4C7EFD4
:100F880007F0C9EF07F02BEF08F02150D96EDA6AA5
:100F9800DF2A000E0001616F000E606F60C05EF016
:100FA8006269636921C007F022C008F04AEC09F0C1
:100FB80007C060F008C061F0000161BFE8EF07F00A
:100FC800E6EF07F0EDEF07F05E80606D611FD8B0C7
:100FD800612B2150D96EDA6ADF50276E27C0F6FFE1
:100FE8000800F550640AD8B4FCEF07F0FEEF07F0EC
:100FF8000AEF08F027C0F6FF0800F550690AD8A4E0
:1010080008EF08F00AEF08F025EF08F02250D96E33
:10101800DA6A020EDF26DF5CD96EDA6ADECF23F0E9
:10102800DECF24F02150D96EDA6A2728DF6E20C07F
:1010380015F023C016F024C017F0FBEC05F03AEFCA
:1010480008F02150D96EDA6ADF2A3AEF08F0215009
:10105800D96EDA6ADFCFF6FF0800F550016E026A32
:1010680020C003F0F5EC08F025EF08F01200000EA0
:10107800066E04BE44EF08F042EF08F04AEF08F0AD
:10108800036C041ED8B0042A010E066E02BE51EF8E
:1010980008F04FEF08F057EF08F0016C021ED8B0C7
:1010A800022A010E061A000E086E000E076E035083
:1010B8000410D8B462EF08F064EF08F08CEF08F081
:1010C800010E056E6CEF08F0D89003360436052A39
:1010D80004AE71EF08F073EF08F068EF08F0D890ED
:1010E800073608360350015C04500258D8A07FEF39
:1010F80008F081EF08F086EF08F00350015E045015
:10110800025A0780D89004320332052E73EF08F094
:101118000650D8B492EF08F094EF08F098EF08F072
:10112800076C081ED8B0082A07C001F008C002F0F2
:101138001200000E066E02BEA6EF08F0A4EF08F03B
:10114800ACEF08F0016C021ED8B0022A010E066E40
:1011580004BEB3EF08F0B1EF08F0B7EF08F0036C86
:10116800041ED8B0042A03500410D8B4BEEF08F007
:10117800C0EF08F0E4EF08F0010E056EC8EF08F0C4
:10118800D89003360436052A04AECDEF08F0CFEF29
:1011980008F0C4EF08F00350015C04500258D8A0CE
:1011A800D8EF08F0DAEF08F0DEEF08F00350015E40
:1011B8000450025AD89004320332052ECFEF08F0BB
:1011C8000650D8B4EAEF08F0ECEF08F0F0EF08F0BA
:1011D800016C021ED8B0022A01C001F002C002F060
:1011E80012000350D8B4FBEF08F0FDEF08F005EF4C
:1011F80009F00350D8A403EF09F005EF09F00AEF4E
:1012080009F00150B5EC0AF049EF09F00350D96E26
:10121800DA6A0A0ED926DE50DE10D8B416EF09F0C5
:1012280018EF09F031EF09F00350D96EDA6A0A0EA7
:10123800D9260350E16EE26A030EE126DE50E65C31
:10124800E650800A086EDE50800A0858D8B02FEFA2
:1012580009F031EF09F049EF09F00350D96EDA6A65
:10126800030ED926DF50046E0350D96EDA6ADF50B8
:101278000424D96EDA6A01C0DFFF0350D96EDA6A36
:10128800030ED926DE2A000EDD221200000E0B6E98
:10129800000E0A6E0750D96EDA6ADFCFF6FF080033
:1012A800F5502A0AD8A45BEF09F05DEF09F083EF47
:1012B80009F00750D96EDA6ADF2A0850D96EDA6A5F
:1012C800020EDF26DF5CD96EDA6ADECF0AF0DECFE7
:1012D8000BF094EF09F00AC001F00BC002F0000E09
:1012E800046E0A0E036E88EC0AF0095001240A6E97
:1012F800000E02200B6E0750D96EDA6ADF2A0750FB
:10130800D96EDA6ADFCFF6FF0800F550D00F096E04
:10131800090E096492EF09F094EF09F06FEF09F0F4
:101328000AC007F00BC008F012005EA09EEF09F09B
:10133800A0EF09F0A6EF09F00FC009F00EC00AF0FF
:1013480002EC0AF011BEADEF09F0ABEF09F0B1EF16
:1013580009F0000E116E000E106E000E146E000ED5
:10136800136EC1EF09F0000E026E200E016E0EC062
:1013780003F0F5EC08F0134A142A1050135C1450CB
:10138800800A126E1150800A1258D8A0CEEF09F0C8
:10139800D0EF09F0B7EF09F05EB0D5EF09F0D7EF5D
:1013A80009F0DDEF09F00FC009F00EC00AF002ECF9
:1013B8000AF01200000E066E000E076E000E086E90
:1013C800000E096EEEEF09F0010E0626000E072248
:1013D800082209220150065C025007580350085899
:1013E8000950800A056E0450800A0558D8A0FFEFFE
:1013F80009F001EF0AF0E8EF09F01200000E0D6E97
:10140800000E0C6E11EF0AF00BC001F0026A0AC060
:1014180003F0F5EC08F00C4A0D2A09500C24D96E9B
:10142800DA6ADF500B6E0B50D8A41DEF0AF01FEFDD
:101438000AF008EF0AF0120029C02BF02CEF0AF08E
:1014480028C020F02B0E216E2AC022F0BAEC07F03B
:101458002BC0F6FF0800F5500009D8A436EF0AF0B3
:1014680038EF0AF024EF0AF0000E296E000E286EFD
:1014780012002E0E306E2CC031F0000E356E000EAC
:10148800346E000E3C6E000E3B6E310E286E2DC081
:1014980029F0300E2A6E20EC0AF02C503424D96E34
:1014A800DA6ADF6A120008BE5CEF0AF05EEF0AF043
:1014B80064EF0AF007C007F008C008F070EF0AF000
:1014C80007C009F008C00AF0091E0A1E094A0A2ABC
:1014D80009C007F00AC008F0120001C003F076EF57
:1014E8000AF0012A0150D96EDA6ADF50D8A47FEFDA
:1014F8000AF081EF0AF075EF0AF00350015C016E03
:10150800026A01BE0206120001500302F3CF05F081
:10151800F4CF06F001500402F350062602500302ED
:10152800F350062605C001F006C002F0120000EED6
:1015380060F0240EEE6AE806FDE15E6A000EF86EC1
:10154800060EF76E00019BEF06F0016E9EA8AFEF46
:101558000AF0B1EF0AF0AAEF0AF09E9801C0ADFFB9
:04156800120012005B
:00000001FF
