:04000000A9EF03F071
:100600000048656C6C300000080E946E000E956E0C
:10061000000E0D6E000E0C6E010E77EC03F00F0E47
:1006200077EC03F0A70E77EC03F0010E0B6E93EC62
:1006300003F0000E0F6E000E0E6E1C0E77EC03F032
:100640000E4A0F2A0FBE2EEF03F00F5009E1100ED5
:100650000E5CD8A02EEF03F030EF03F01DEF03F097
:10066000020E77EC03F019EF03F000EF00F0000E3C
:10067000066E000E076E000E086E000E096E47EF44
:1006800003F0010E0626000E07220822092201505F
:10069000065C02500758035008580950800A056E3E
:1006A0000450800A0558D8A058EF03F05AEF03F021
:1006B00041EF03F012000A6E828082920AC083FF2B
:1006C0008284640E016E000E026E000E036E000E38
:1006D000046E37EC03F08294880E016E130E026EE6
:1006E000000E036E000E046E37EC03F012000A6E6B
:1006F000829082920AC083FF8284640E016E000E93
:10070000026E000E036E000E046E37EC03F082944E
:10071000880E016E130E026E000E036E000E046E44
:1007200037EC03F012009CEF03F00BC0F6FF08005B
:10073000F5505BEC03F00B2A0BC0F6FF0800F550F8
:100740000009D8A4A6EF03F0A8EF03F095EF03F09B
:100750001200000EF86E060EF76E000104EF03F0B3
:00000001FF
