:0400000076EF03F0A4
:100600000000010E946E000E956E000E066E000E38
:10061000056E82A00EEF03F010EF03F027EF03F05A
:10062000030E05180610D8A418EF03F01AEF03F014
:100630001EEF03F0000E066E000E056E054A062A38
:1006400082B025EF03F027EF03F020EF03F005045D
:100650000610D8A42EEF03F030EF03F034EF03F0D0
:10066000010E836E09EF03F0020E05180610D8A4E0
:100670003CEF03F03EEF03F042EF03F0000E836E19
:1006800009EF03F0030E05180610D8A44AEF03F093
:100690004CEF03F009EF03F0010E836E000E026EC3
:1006A000000E016E014A022AE90E015CFD0E02589D
:1006B000D8A05DEF03F05FEF03F052EF03F0000E00
:1006C000836E000E046E000E036E034A042AE90EC8
:1006D000035CFD0E0458D8A070EF03F072EF03F036
:1006E00065EF03F009EF03F000EF00F0000101EF08
:0206F00003F015
:00000001FF
