:04000000B9EF04F060
:100600000000000E946E000E956E020E826E000EBB
:10061000096E000E0A6E000E0B6E000E0C6E010EBF
:100620000926000E0A220B220C220C500B100BE1A3
:10063000500E095CC30E0A58D8A021EF03F023EF37
:1006400003F00FEF03F0000E2A6E000E296E8250A9
:10065000040DF328826E000E0D6E000E0E6E000E5D
:100660000F6E000E106E010E0D26000E0E220F22D0
:10067000102210500F100BE1500E0D5CC30E0E58DF
:10068000D8A045EF03F047EF03F033EF03F0294A1A
:100690002A2A2A5009E1070E295CD8A052EF03F05C
:1006A00054EF03F027EF03F08268010E836E000E13
:1006B000116E000E126E000E136E000E146E010EFF
:1006C0001126000E122213221422145013100BE1D3
:1006D000500E115CC30E1258D8A071EF03F073EFE7
:1006E00003F05FEF03F0000E2A6E000E296E8350B8
:1006F000020DF328836E000E156E000E166E000EAE
:10070000176E000E186E010E1526000E1622172207
:100710001822185017100BE1500E155CC30E165816
:10072000D8A095EF03F097EF03F083EF03F0294A89
:100730002A2A2A5009E1070E295CD8A0A2EF03F06B
:10074000A4EF03F077EF03F082688368000E2A6E4F
:10075000000E296E83CF01F0026A000E046E020EB5
:10076000036E57EC04F00150836E000E196E000EFC
:100770001A6E000E1B6E000E1C6E010E1926000E66
:100780001A221B221C221C501B100BE1500E195C5C
:10079000C30E1A58D8A0CFEF03F0D1EF03F0BDEF8E
:1007A00003F0294A2A2A2A5009E1070E295CD8A019
:1007B000DCEF03F0DEEF03F0AAEF03F0000E836E30
:1007C0008268000E1D6E000E1E6E000E1F6E000E63
:1007D000206E010E1D26000E1E221F2220222050F8
:1007E0001F100BE1500E1D5CC30E1E58D8A0FBEF6E
:1007F00003F0FDEF03F0E9EF03F0000E2A6E000EA8
:10080000296E82CF01F0026A000E046E020E036EA2
:1008100057EC04F00150826E000E216E000E226E25
:10082000000E236E000E246E010E2126000E2222E1
:1008300023222422245023100BE1500E215CC30EEE
:100840002258D8A026EF04F028EF04F014EF04F0AB
:10085000294A2A2A2A5009E1070E295CD8A033EF39
:1008600004F035EF04F001EF04F0000E826E000E8C
:10087000256E000E266E000E276E000E286E010EED
:100880002526000E262227222822285027100BE199
:10089000500E255CC30E2658D8A051EF04F053EF3C
:1008A00004F03FEF04F001EF03F000EF00F0000E62
:1008B000066E04BE60EF04F05EEF04F066EF04F035
:1008C000036C041ED8B0042A010E066E02BE6DEF42
:1008D00004F06BEF04F073EF04F0016C021ED8B06B
:1008E000022A010E061A000E086E000E076E035053
:1008F0000410D8B47EEF04F080EF04F0A8EF04F009
:10090000010E056E88EF04F0D89003360436052AF0
:1009100004AE8DEF04F08FEF04F084EF04F0D89074
:10092000073608360350015C04500258D8A09BEFEC
:1009300004F09DEF04F0A2EF04F00350015E0450B8
:10094000025A0780D89004320332052E8FEF04F04C
:100950000650D8B4AEEF04F0B0EF04F0B4EF04F0FA
:10096000076C081ED8B0082A07C001F008C002F0C2
:080970001200000101EF03F089
:00000001FF
